:100000000C94F3000C941B010C941B010C941B0129
:100010000C941B010C941B010C941B010C941B01F0
:100020000C941B010C941B010C941B010C941B01E0
:100030000C941B010C941B010C941B010C941B01D0
:100040000C940D040C941B010C947D040C94570427
:100050000C941B010C941B010C941B010C941B01B0
:100060000C941B010C941B014E6F2070726F677211
:10007000616D207965742E204265616D206F6E651B
:100080002066726F6D206265616D636C61775F6180
:1000900067656E742E68746D6C2E00204229202DC9
:1000A0002072756E6E696E672E004C6F61646564B8
:1000B0002073746F7265642070726F6772616D2057
:1000C00028003D3D204265616D436C6177204147CA
:1000D000454E5420564D207632203D3D00643D640F
:1000E00069616720703D7072696E7420783D657239
:1000F00061736520683D68656C70003E3E206572E6
:100100006173656400423A200070726F6720004F8F
:100110004646004F4E003E3E2044494147200020C5
:100120006279746573202D3E2072756E6E696E67FC
:10013000202A2A2A000A2A2A2A205B50524F4720C6
:100140004C4F414445445D20005B70726F675D20F9
:1001500072656A6563746564202873697A6529002D
:100160002072756E3D0020616D703D007261773DBB
:1001700000000000002300260029005B766D5D2052
:10018000626164206F702040005B766D5D204841A5
:100190004C540000000008000201000003040700A6
:1001A0000000000000000000000000250028002BD7
:1001B0000000000000240027002A000404040404B6
:1001C0000404040202020202020303030303030104
:1001D00002040810204080010204081020010204DB
:1001E00008102000920C11241FBECFEFD8E0DEBF14
:1001F000CDBF11E0A0E0B1E0E8EAFDE102C005906A
:100200000D92AA31B107D9F722E0AAE1B1E001C00D
:100210001D92A23FB207E1F710E0C3EFD0E004C0A7
:100220002197FE010E94C30EC23FD107C9F70E9469
:10023000AF040C94D20E0C94000090E0FC01E1534A
:10024000FE4F249185549E4FFC018491882399F0A0
:1002500090E0880F991FFC01EF54FE4FA591B491D7
:10026000FC01E955FE4F859194918FB7F894EC917C
:10027000E22BEC938FBF0895833081F028F4813016
:1002800099F08230A9F008958730A9F08830C9F03C
:100290008430B1F4809180008F7D03C08091800014
:1002A0008F7780938000089584B58F7784BD0895FB
:1002B00084B58F7DFBCF8091B0008F778093B000A5
:1002C00008958091B0008F7DF9CF1F93CF93DF9376
:1002D000282F30E0F901ED56FE4F8491F901E153EA
:1002E000FE4FD491F901E554FE4FC491CC23A9F0FF
:1002F000162F81110E943C01EC2FF0E0EE0FFF1F42
:10030000E955FE4FA591B4918FB7F894EC91111176
:1003100008C0D095DE23DC938FBFDF91CF911F9172
:100320000895DE2BF8CF8E3008F08E5087708064F1
:1003300080937C0080917A00806480937A00809121
:100340007A0086FDFCCF8091780090917900089525
:100350003FB7F8948091510290915202A0915302BC
:10036000B091540226B5A89B05C02F3F19F0019605
:10037000A11DB11D3FBFBA2FA92F982F8827BC01FF
:10038000CD01620F711D811D911D42E0660F771F27
:10039000881F991F4A95D1F708958F929F92AF9227
:1003A000BF92CF92DF92EF92FF924B015C010E94CD
:1003B000A8016B017C010E94A8016C197D098E09BE
:1003C0009F09683E734081059105A8F321E0821AD8
:1003D0009108A108B10888EEC80E83E0D81EE11C80
:1003E000F11C81149104A104B10429F7FF90EF904E
:1003F000DF90CF90BF90AF909F908F9008952FB7D0
:10040000F89460914D0270914E0280914F0290914C
:1004100050022FBF0895AF92BF92CF92DF92EF921A
:10042000FF920F931F93CF93DF936C017B018B019E
:10043000040F151FEB015E01AE18BF08C017D107EE
:1004400059F06991D601ED91FC910190F081E02D78
:10045000C6010995892B79F7C501DF91CF911F91CD
:100460000F91FF90EF90DF90CF90BF90AF900895E5
:10047000FC01538D448D252F30E0842F90E0821BAA
:10048000930B541710F0CF96089501970895FC012F
:10049000918D828D981761F0A28DAE0FBF2FB11D87
:1004A0005D968C91928D9F5F9F73928F90E00895DF
:1004B0008FEF9FEF0895FC01918D828D981731F099
:1004C000828DE80FF11D858D90E008958FEF9FEFED
:1004D0000895FC01918D228D892F90E0805C9F4FC3
:1004E000821B91098F739927089585E592E00E94F8
:1004F000690221E0892B09F420E0822F089580E031
:1005000090E0892B29F00E94750281110C94000063
:100510000895FC01A48DA80FB92FB11DA35ABF4F98
:100520002C91848D90E001968F739927848FA689F2
:10053000B7892C93A089B1898C91837080648C9346
:10054000938D848D981306C00288F389E02D8081F5
:100550008F7D80830895EF92FF920F931F93CF9327
:10056000DF93EC0181E0888F9B8D8C8D98131AC0EE
:10057000E889F989808185FF15C09FB7F894EE89D5
:10058000FF896083E889F989808183708064808332
:100590009FBF81E090E0DF91CF911F910F91FF907D
:1005A000EF900895F62E0B8D10E00F5F1F4F0F7325
:1005B0001127E02E8C8D8E110CC00FB607FCFACFE0
:1005C000E889F989808185FFF5CFCE010E948902F3
:1005D000F1CFEB8DEC0FFD2FF11DE35AFF4FF082B1
:1005E0009FB7F8940B8FEA89FB8980818062CFCF17
:1005F0000F931F93CF93DF938C01D0E0C0E0F801FD
:10060000EC0FFD1F6491662341F085E592E00E94A6
:10061000AB02892B11F02196F2CFCE01DF91CF9161
:100620001F910F910895CF93DF93EC01888D88235C
:10063000B9F0AA89BB89E889F9898C9185FD03C045
:10064000808186FD0DC00FB607FCF7CF8C9185FF2A
:10065000F2CF808185FFEDCFCE010E948902E9CFE4
:10066000DF91CF9108951092AE011092AD011092DA
:10067000A4011092A5011092A6011092A701109258
:100680009901109298011092970110929601109280
:100690009A0108951092400210923F021092BE01FA
:1006A000109246020E94FF0160934202709343023F
:1006B0008093440290934502EFEBF1E0178216829B
:1006C00015821482138212821182108208958F92F1
:1006D0009F92AF92BF920F931F93CF93DF93CDB7AB
:1006E000DEB7A1970FB6F894DEBF0FBECDBF19A23B
:1006F000423008F44AE08E010F5D1F4F842E912C8A
:10070000B12CA12CA50194010E94A10EE62FB901E4
:10071000CA01EA3044F5E05DD801EE938D01232B48
:10072000242B252B79F790E080E0109769F0FD01EC
:1007300001900020E9F73197AF014A1B5B0BBD0127
:1007400085E592E00E940B02A1960FB6F894DEBFF9
:100750000FBECDBFDF91CF911F910F91BF90AF9092
:100760009F908F900895E95CD7CFCF92DF92EF9260
:10077000FF92CF93DF936B017C016DE285E592E000
:100780000E94AB02EC0166277727CB016C197D092B
:100790008E099F094AE00E9467038C0F9D1FDF911D
:1007A000CF91FF90EF90DF90CF90089542E050E01E
:1007B00066E171E085E592E00C940B02CF93DF9344
:1007C0000E94F802EC010E94D6038C0F9D1FDF915E
:1007D000CF910895BC01990F880B990B97FD0C944C
:1007E000B5034AE00C946703FF920F931F93CF93D6
:1007F000DF93EC01F62E08811981C8010E94BF0C1D
:10080000F81621F06F2DC8010E94C70CCE01DF91B0
:10081000CF911F910F91FF9008951F920F920FB6E5
:100820000F9211242F933F938F939F93AF93BF9376
:1008300080914D0290914E02A0914F02B0915002D2
:1008400030914C0223E0230F2D3758F50196A11D5E
:10085000B11D20934C0280934D0290934E02A093C1
:100860004F02B09350028091510290915202A09198
:100870005302B09154020196A11DB11D8093510203
:1008800090935202A0935302B0935402BF91AF9140
:100890009F918F913F912F910F900FBE0F901F90BE
:1008A000189526E8230F0296A11DB11DD2CF1F92E5
:1008B0000F920FB60F9211242F933F934F935F9394
:1008C0006F937F938F939F93AF93BF93EF93FF9318
:1008D00085E592E00E948902FF91EF91BF91AF916F
:1008E0009F918F917F916F915F914F913F912F9148
:1008F0000F900FBE0F901F9018951F920F920FB67A
:100900000F9211242F938F939F93EF93FF93E09176
:100910006502F09166028081E0916B02F0916C02B9
:1009200082FD1BC0908180916E028F5F8F7320913A
:100930006F02821741F0E0916E02F0E0EB5AFD4F3A
:10094000958F80936E02FF91EF919F918F912F91E0
:100950000F900FBE0F901F9018958081F4CFCF930A
:10096000DF93CDB7DEB7C758D1090FB6F894DEBF15
:100970000FBECDBF789484B5826084BD84B581609C
:1009800084BD85B5826085BD85B5816085BD80915A
:100990006E00816080936E001092810080918100D2
:1009A00082608093810080918100816080938100CA
:1009B000809180008160809380008091B10084608C
:1009C0008093B1008091B00081608093B0008091ED
:1009D0007A00846080937A0080917A0082608093AC
:1009E0007A0080917A00816080937A0080917A0009
:1009F000806880937A001092C1008DE00E941D01F2
:100A0000E0916502F091660282E08083E0916102EC
:100A1000F09162021082E0916302F091640280E141
:100A2000808310926D02E0916902F0916A0286E083
:100A30008083E0916702F091680280818061808309
:100A4000E0916702F0916802808188608083E09184
:100A50006702F0916802808180688083E09167027C
:100A6000F091680280818F7D808362E370E080E096
:100A700090E00E94CD010E94D60382EC90E00E949B
:100A8000DE0390E080E00E94BF0C8C3B09F076C052
:100A900081E090E00E94BF0C182F8FEF810F883704
:100AA00008F06CC01093410237ECC32E31E0D32E16
:100AB00042E0E42EF12CC7010E94BF0CF6018193A5
:100AC0006F01FFEFEF1AFF0A8EEF8E0D811798F37B
:100AD0000E944A0381E0809347028AEA90E00E94E4
:100AE000F802612F70E090E080E04AE00E94670326
:100AF0008BE990E00E94DE030E94FF016093A00159
:100B00007093A1018093A2019093A3016093480286
:100B10007093490280934A0290934B026093AF0115
:100B20007093B0018093B1019093B2019E012F5F49
:100B30003F4FEE963FAF2EAFEE9701E085E592E096
:100B40000E946902892B09F46AC085E592E00E943F
:100B500047028436B1F410919F0131E013271093BE
:100B60009F0186E191E00E94F80283E191E011117A
:100B700002C08FE091E00E94DE03E0CF88E690E0C3
:100B8000B9CF8037B1F589E091E00E94F802609119
:100B9000410270E090E080E04AE00E94670385E057
:100BA00091E00E94F80210E0809141021817F0F4E1
:100BB000812F90E0AC0149535E4F7A01FA018081A8
:100BC000803128F460E385E592E00E94AB02F701F2
:100BD000608170E090E080E040E10E94670360E2A5
:100BE00085E592E00E94AB021F5FDECF0E94D60334
:100BF000A5CF883771F41A82198260E0CE01019680
:100C00000E94F40310924702109241028BEF90E091
:100C1000B2CF883609F092CF8DED90E0ACCF0E9434
:100C2000FF01C0904802D0904902E0904A02F09043
:100C30004B029B01AC012C193D094E095F0969016A
:100C40007A0134E0C316D104E104F10408F48EC241
:100C5000609348027093490280934A0290934B023A
:100C60008EE00E949301CE57DF4F99838883C2584C
:100C7000D0408091BD01CE57DF4F48815981C25885
:100C8000D0406A01550FEE08FF08811116C0C70158
:100C9000B6010E947F0D6093B9017093BA018093F1
:100CA000BB019093BC016093B5017093B601809332
:100CB000B7019093B8010093BD01C701B6010E942E
:100CC0007F0D6B017C018090B5019090B601A090E2
:100CD000B701B090B801A50194010E942F0E18161B
:100CE0000CF087C1C092B501D092B601E092B70175
:100CF000F092B8018090B9019090BA01A090BB0128
:100D0000B090BC01A5019401C701B6010E94420D3B
:100D100087FF88C1C092B901D092BA01E092BB01AD
:100D2000F092BC018090B5019090B601A090B701FF
:100D3000B090B8014090B9015090BA016090BB01E9
:100D40007090BC01A3019201C501B4010E94D50CB1
:100D5000C258DF4F688379838A839B83CE57D04004
:100D6000A3019201C501B4010E94D60C20E030E03D
:100D700040E05FE30E94340E4B015C0120E030E074
:100D800040E85EE3C258DF4F688179818A819B81A8
:100D9000CE57D0400E94340E2B013C01AC019B0188
:100DA000C501B4010E94D60C9B01AC01C701B6017C
:100DB0000E942F0E18160CF04EC10093B401109132
:100DC000B401F090B3010E94FF018090AF019090B8
:100DD000B001A090B101B090B2019B01AC01281903
:100DE00039094A095B0949015A011F1551F00E944E
:100DF000FF016093AF017093B0018093B1019093B4
:100E0000B2010E94FF012B013C012090AD01309006
:100E1000AE012114310409F42FC131E0231631044D
:100E200009F4FFC11F1509F466C0C0900001D090FD
:100E30000101E0900201F090030120E030E040E089
:100E40005FE3C701B6010E94340ECC57DF4F6883C1
:100E500079838A839B83C458D0400E944E0D640DD1
:100E6000751D861D971D6093A0017093A10180934D
:100E7000A2019093A30152E025163104E1F5C501CA
:100E8000B4010E947D0D4B015C01AC019B01CC576C
:100E9000DF4F688179818A819B81C458D0400E944C
:100EA000420D87FF28C020E030E040EC5FE3C7013F
:100EB000B6010E94340E9B01AC01C501B4010E9431
:100EC000420D87FF18C0A7019601C501B4010E9419
:100ED000D50C2DEC3CEC4CEC5DE30E94340EA701EC
:100EE00096010E94D60C60930001709301018093DB
:100EF0000201909303018091A0019091A101A09122
:100F0000A201B091A301A3019201281B390B4A0B46
:100F10005B0BDA01C901B7FDD1C08091A4019091AA
:100F2000A501A091A601B091A701880F991FAA1F42
:100F3000BB1F812B8093A4019093A501A093A601D0
:100F4000B093A70132E02316310409F004C28A35B8
:100F500045EA940709F0F8C110929A0183E090E005
:100F60009093AE018093AD01109299011092980177
:100F7000C0900001D0900101E0900201F0900301C7
:100F8000C701B6010E944E0D8090A0019090A10172
:100F9000A090A201B090A301DC01CB01880D991DA6
:100FA000AA1DBB1D8093A0019093A101A093A20153
:100FB000B093A3018091A8019091A901A091AA01E9
:100FC000B091AB0153014201881A990AAA0ABB0ADF
:100FD00020E030E04FEA54E4C701B6010E94340E2D
:100FE0000E944E0D681579058A059B0508F066C0BC
:100FF000A8C1A5019401C701B6010E94D50C2FE636
:1010000032E143E05BE30E94340EA50194010E94AB
:10101000D60C6093B5017093B6018093B70190939D
:10102000B80168CEA5019401C701B6010E94D50C94
:101030002FE632E143E05BE30E94340EA501940108
:101040000E94D60C6093B9017093BA018093BB01E2
:101050009093BC0167CEA3019201C501B4010E9427
:10106000D50C9B01AC01C701B6010E94420D87FF60
:10107000A6CE1092B401A3CE20E030E040E752E4C7
:10108000C258DF4F688179818A819B81CE57D040D9
:101090000E942F0E87FD12C01F1581F041E050E025
:1010A0005093AE014093AD011092AC014092A80163
:1010B0005092A9016092AA017092AB018091B40193
:1010C0008093B30180919F01882309F44FC08091E0
:1010D000AD019091AE01892B09F048C080919B0130
:1010E00090919C01A0919D01B0919E01A30192015C
:1010F000281B390B4A0B5B0BDA01C901803991407F
:10110000A105B10598F140929B0150929C0160921B
:101110009D0170929E018CE691E00E94F802CE57EC
:10112000DF4F88819981C258D0400E94EA0386E649
:1011300091E00E94F802C258DF4F688179818A816C
:101140009B81CE57D0400E94470DCB010E94EA03FD
:1011500080E691E00E94F8026091470270E090E022
:1011600080E04AE00E9467030E94D6038091470214
:10117000882309F493C38091460281118FC30E9492
:10118000FF01C0904202D0904302E0904402F090F0
:1011900045026C197D098E099F0997FD7FC311E4F3
:1011A000115009F47BC32091410230E0E0903F02EE
:1011B000F0904002E216F30608F070C3F701E9531D
:1011C000FE4F8081670142E0C40ED11CB12CA12CDE
:1011D000C216D30638F49181D601A953BE4FAC9004
:1011E000BA2CA92E873009F4AEC208F0F1C18330C1
:1011F00009F46DC208F0CCC1813009F43DC28230DF
:1012000009F452C2009346028BE791E00E94F80273
:10121000B70190E080E04AE00E9467030E94D60395
:101220003DC31F1509F469C0C501B4010E947D0DBD
:101230006B017C0120E030E044E352E40E942F0E79
:10124000181654F520E030E04AEF53E4C701B60128
:101250000E94420D87FF20C0809000019090010104
:10126000A0900201B0900301A5019401C701B6014D
:101270000E94D50C23E333E343EB5EE30E94340E7C
:10128000A50194010E94D60C6093000170930101A6
:1012900080930201909303018091AC018F5F809352
:1012A000AC01883050F16091000170910101809192
:1012B00002019091030122E030E03093AE012093CF
:1012C000AD011092A4011092A5011092A6011092F6
:1012D000A70120E030E040E05FE30E94340E0E946E
:1012E0004E0D640D751D861D971D6093A0017093B2
:1012F000A1018093A2019093A3018091A8019091F4
:10130000A901A091AA01B091AB0173016201C81AB1
:10131000D90AEA0AFB0A20E030E04FEA54E460917F
:1013200000017091010180910201909103010E94DE
:10133000340E0E944E0D6C157D058E059F0508F03C
:10134000BDCE0E943303BACE853A9A4509F010CE3D
:1013500000939A0103CE80919A01882311F061E0F5
:10136000162780919801880F182B1093980180916F
:1013700099018F5F883018F480939901F9CD10920C
:1013800099011092980173E027163104A1F41937DE
:1013900018F00E943303ECCD109397011092960140
:1013A00084E090E0111102C085E090E09093AE01DE
:1013B0008093AD01DDCD84E02816310481F4E09105
:1013C000960181E08E0F80939601F0E0E25EFE4F81
:1013D000108390919701891708F4CACDE5CF95E065
:1013E0002916310409F0C4CDD0909701D982ED2C93
:1013F000F12CA7016EE171E0CE0102960E94C90EA8
:1014000097012F5F3F4FFE01319680E09191892730
:1014100098E087FF48C0880F47E084279150C9F7BC
:10142000AF01EE966EAD7FADEE97461B570B4217A0
:10143000530760F31813ADCFEEE1F1E047E85DEF3D
:1014400067EA79E180E0D81681F14A015B01ADE0FD
:10145000880C991CAA1CBB1CAA95D1F7842695263A
:10146000A626B726B501A401B1E1769567955795F3
:101470004795BA95D1F7482559256A257B254A0114
:101480005B0115E0880C991CAA1CBB1C1A95D1F7AE
:10149000482559256A257B259191DF0111979427CD
:1014A0009C938F5FD0CF880FB9CF40931A01509390
:1014B0001B0160931C0170931D018FEF8D0D883708
:1014C00028F089E491E00E94DE0363CFA7016EE17A
:1014D00071E087EC91E00E94C90ED0924102EC9637
:1014E0001FAE1EAEEC976CEBCE0186589F4F0E944C
:1014F000F4036091410281E090E0EC969FAF8EAFE3
:10150000EC97CE0186589F4F0E94F403F12C109166
:101510004102F11690F48F2D90E0FC01E953FE4F4B
:1015200060810296EC969FAF8EAFEC97CE01865805
:101530009F4F0E94F403F394EACF0E944A03009362
:10154000470285E391E00E94F802612F70E090E08D
:1015500080E04AE00E9467038FE191E00E94DE0391
:1015600013E061E08DE00E94650168E270E080E0D8
:1015700090E00E94CD0160E08DE00E94650168E28C
:1015800070E080E090E00E94CD01115051F701CF52
:10159000853051F008F4B9C08091BE01811104C0BA
:1015A000570193E0A90EB11CB0924002A0923F02F5
:1015B0002091410280913F02909140022817190624
:1015C00011F008F0EDCD1092400210923F02E8CDEC
:1015D0008B3009F44EC108F040C0893009F4D7C0FF
:1015E00008F4BBC0F1808EEF8F0D823108F030C05F
:1015F0006EE0F61669F18F2D0E941D012F2D30E04F
:10160000F901ED56FE4F8491F901E153FE4FE4904C
:10161000F901E554FE4FB49070E060E0BB2099F012
:1016200081110E943C01EB2DF0E0EE0FFF1FEF58FF
:10163000FE4FA591B491EC91EE2291E080E009F487
:1016400090E0692F782F81E068278F2D0E94650137
:10165000D0924002C0923F02ABCF8D3009F446C118
:1016600008F429C18F3F09F0CDCD0093460289E8E7
:1016700091E00E94DE0312C1A181B0E0AA0FBB1F5E
:10168000A154BE4F8381F601E953FE4F9081892713
:10169000982789278D939C9354E0E50EF11CF092D6
:1016A0004002E0923F0284CFA180B12CF601E953C1
:1016B000FE4F80810E949301F501EE0FFF1FE15460
:1016C000FE4F9183808363E0E60EF11CE8CFA18199
:1016D000B0E0AA0FBB1FA154BE4FF601E953FE4F65
:1016E000E081F0E0EE0FFF1FE154FE4F81E04D91ED
:1016F0005C9120813181421753070CF080E0809388
:10170000BE0173E0E70EF11CCACFA181B0E0AA0FC1
:10171000BB1FA154BE4FF601E953FE4FE081F0E03C
:10172000EE0FFF1FE154FE4F81E04D915C9120814F
:101730003181241735070CF080E08093BE0183E0EF
:10174000E80EF11CACCF8091BE01882309F42CCFA8
:101750005701E3E0AE0EB11C27CFB1808EEF8B0DA9
:10176000823188F4FEE0BF1671F08B2D0E941D01BE
:10177000F601E953FE4F61E08081811101C060E014
:101780008B2D0E94650123E0E20EF11C88CFB18011
:101790008EEF8B0D823108F043C03EE0B31609F4A2
:1017A0003FC08B2D0E941D01F601E953FE4FD080F2
:1017B000ED2CF12C8B2D0E941D01E114F10429F474
:1017C00060E08B2D0E9465012BC04FEFE416F10401
:1017D00011F461E0F6CFEB2DF0E0ED56FE4FE49111
:1017E000E33069F148F4E130B9F0E23019F150E842
:1017F000E516F10474F7E4CFE73059F1E83089F1E8
:10180000E430A9F780918000806280938000F0929C
:101810008B00E0928A0004C084B5806884BDD7BC88
:1018200080913F02909140020396909340028093F2
:101830003F02BECE84B5806284BDD8BCF1CF80911A
:101840008000806880938000F0928900E092880098
:10185000E7CF8091B00080688093B000D092B30051
:10186000DFCF8091B00080628093B000D092B4004E
:10187000D7CF0E94FF016A0D7B1D811D911D6093D2
:10188000420270934302809344029093450293E096
:10189000E90EF11CF0924002E0923F0280E090E0FD
:1018A000892B09F44BC90E947502882309F445C9A4
:1018B0000E94000042C9E181F0E0EE0FFF1FE154F9
:1018C000FE4FD601A953BE4FAC91B0E0AA0FBB1F8B
:1018D000A154BE4F8D919C9120813181820F931F25
:1018E00091838083E3E0EE0EF11CD9CEA181B0E0BC
:1018F000AA0FBB1FA154BE4FF601E953FE4FE08172
:10190000F0E0EE0FFF1FE154FE4F8D919C91119777
:1019100020813181821B930B8D939C93F3E0EF0E1A
:10192000F11CBDCEE5E5F2E01382128288EE93E071
:10193000A0E0B0E084839583A683B78388E091E03C
:101940009183808385EC90E09587848784EC90E098
:101950009787868780EC90E0918B808B81EC90E07C
:10196000938B828B82EC90E0958B848B86EC90E05D
:10197000978B868B118E128E138E148E0895F99983
:10198000FECF92BD81BDF89A992780B50895262F84
:10199000F999FECF1FBA92BD81BD20BD0FB6F89454
:1019A000FA9AF99A0FBE019608955058BB27AA27B4
:1019B0000E94ED0C0C94F50D0E94E70D38F00E948A
:1019C000EE0D20F039F49F3F19F426F40C94E40D49
:1019D0000EF4E095E7FB0C94DE0DE92F0E94060E55
:1019E00058F3BA17620773078407950720F079F454
:1019F000A6F50C94280E0EF4E0950B2EBA2FA02D10
:101A00000B01B90190010C01CA01A0011124FF27AB
:101A1000591B99F0593F50F4503E68F11A16F040A6
:101A2000A22F232F342F4427585FF3CF46953795A5
:101A30002795A795F0405395C9F77EF41F16BA0B6A
:101A4000620B730B840BBAF09150A1F0FF0FBB1F18
:101A5000661F771F881FC2F70EC0BA0F621F731F61
:101A6000841F48F4879577956795B795F7959E3FBE
:101A700008F0B0CF9395880F08F09927EE0F97954F
:101A8000879508950E94BA0D08F481E008950E9498
:101A90004E0D6894B1110C94290E08950E940E0EFB
:101AA00088F09F5798F0B92F9927B751B0F0E1F01F
:101AB000660F771F881F991F1AF0BA95C9F714C0CF
:101AC000B13091F00E94280EB1E008950C94280ED8
:101AD000672F782F8827B85F39F0B93FCCF3869508
:101AE00077956795B395D9F73EF490958095709565
:101AF00061957F4F8F4F9F4F0895E89409C097FBE2
:101B00003EF490958095709561957F4F8F4F9F4FD4
:101B10009923A9F0F92F96E9BB279395F695879518
:101B200077956795B795F111F8CFFAF4BB0F11F4DB
:101B300060FF1BC06F5F7F4F8F4F9F4F16C0882382
:101B400011F096E911C0772321F09EE8872F762FB8
:101B500005C0662371F096E8862F70E060E02AF0F9
:101B60009A95660F771F881FDAF7880F96958795E5
:101B700097F90895990F0008550FAA0BE0E8FEEFBA
:101B800016161706E807F907C0F012161306E40741
:101B9000F50798F0621B730B840B950B39F40A263A
:101BA00061F0232B242B252B21F408950A2609F418
:101BB000A140A6958FEF811D811D089597F99F671C
:101BC00080E870E060E008959FEF80EC08950024C5
:101BD0000A941616170618060906089500240A9492
:101BE00012161306140605060895092E0394000C18
:101BF00011F4882352F0BB0F40F4BF2B11F460FFA7
:101C000004C06F5F7F4F8F4F9F4F089557FD9058CF
:101C1000440F551F59F05F3F71F04795880F97FBB0
:101C2000991F61F09F3F79F087950895121613066A
:101C30001406551FF2CF4695F1DF08C01616170699
:101C40001806991FF1CF86957105610508940895CE
:101C5000E894BB2766277727CB0197F908950E9460
:101C6000BA0D08F48FEF08950E94470E0C94F50DFD
:101C70000E94E70D38F00E94EE0D20F0952311F040
:101C80000C94DE0D0C94E40D11240C94290E0E948A
:101C9000060E70F3959FC1F3950F50E0551F629F9C
:101CA000F001729FBB27F00DB11D639FAA27F00DB5
:101CB000B11DAA1F649F6627B00DA11D661F829FDC
:101CC0002227B00DA11D621F739FB00DA11D621FC1
:101CD000839FA00D611D221F749F3327A00D611DDE
:101CE000231F849F600D211D822F762F6A2F1124C0
:101CF0009F5750409AF0F1F088234AF0EE0FFF1FF3
:101D0000BB1F661F771F881F91505040A9F79E3F49
:101D1000510580F00C94DE0D0C94290E5F3FE4F326
:101D2000983ED4F3869577956795B795F795E7959F
:101D30009F5FC1F7FE2B880F911D9695879597F9A8
:101D40000895A1E21A2EAA1BBB1BFD010DC0AA1FFC
:101D5000BB1FEE1FFF1FA217B307E407F50720F014
:101D6000A21BB30BE40BF50B661F771F881F991F8F
:101D70001A9469F760957095809590959B01AC01D8
:101D8000BD01CF010895EE0FFF1F0590F491E02DE6
:101D90000994FB01DC0102C001900D9241505040BA
:081DA000D8F70895F894FFCF75
:101DA8000000164300000000AB020B0238021303C8
:0A1DB800690247025B020D0A0000F9
:00000001FF
